{
  "contractName": "Campaign",
  "abi": [
    {
      "inputs": [
        {
          "internalType": "address",
          "name": "_admin",
          "type": "address"
        },
        {
          "internalType": "string",
          "name": "_title",
          "type": "string"
        },
        {
          "internalType": "string",
          "name": "_description",
          "type": "string"
        },
        {
          "internalType": "uint256",
          "name": "_minimumContribution",
          "type": "uint256"
        },
        {
          "internalType": "uint256",
          "name": "_goal",
          "type": "uint256"
        },
        {
          "internalType": "uint256",
          "name": "_deadline",
          "type": "uint256"
        }
      ],
      "stateMutability": "nonpayable",
      "type": "constructor"
    },
    {
      "inputs": [],
      "name": "admin",
      "outputs": [
        {
          "internalType": "address",
          "name": "",
          "type": "address"
        }
      ],
      "stateMutability": "view",
      "type": "function",
      "constant": true
    },
    {
      "inputs": [
        {
          "internalType": "address",
          "name": "",
          "type": "address"
        },
        {
          "internalType": "string",
          "name": "",
          "type": "string"
        }
      ],
      "name": "approvalsForRequest",
      "outputs": [
        {
          "internalType": "bool",
          "name": "",
          "type": "bool"
        }
      ],
      "stateMutability": "view",
      "type": "function",
      "constant": true
    },
    {
      "inputs": [
        {
          "internalType": "address",
          "name": "",
          "type": "address"
        }
      ],
      "name": "contributors",
      "outputs": [
        {
          "internalType": "uint256",
          "name": "",
          "type": "uint256"
        }
      ],
      "stateMutability": "view",
      "type": "function",
      "constant": true
    },
    {
      "inputs": [],
      "name": "deadline",
      "outputs": [
        {
          "internalType": "uint256",
          "name": "",
          "type": "uint256"
        }
      ],
      "stateMutability": "view",
      "type": "function",
      "constant": true
    },
    {
      "inputs": [],
      "name": "description",
      "outputs": [
        {
          "internalType": "string",
          "name": "",
          "type": "string"
        }
      ],
      "stateMutability": "view",
      "type": "function",
      "constant": true
    },
    {
      "inputs": [],
      "name": "goal",
      "outputs": [
        {
          "internalType": "uint256",
          "name": "",
          "type": "uint256"
        }
      ],
      "stateMutability": "view",
      "type": "function",
      "constant": true
    },
    {
      "inputs": [],
      "name": "minimumContribution",
      "outputs": [
        {
          "internalType": "uint256",
          "name": "",
          "type": "uint256"
        }
      ],
      "stateMutability": "view",
      "type": "function",
      "constant": true
    },
    {
      "inputs": [],
      "name": "numContributors",
      "outputs": [
        {
          "internalType": "uint256",
          "name": "",
          "type": "uint256"
        }
      ],
      "stateMutability": "view",
      "type": "function",
      "constant": true
    },
    {
      "inputs": [],
      "name": "raisedAmount",
      "outputs": [
        {
          "internalType": "uint256",
          "name": "",
          "type": "uint256"
        }
      ],
      "stateMutability": "view",
      "type": "function",
      "constant": true
    },
    {
      "inputs": [
        {
          "internalType": "uint256",
          "name": "",
          "type": "uint256"
        }
      ],
      "name": "requests",
      "outputs": [
        {
          "internalType": "string",
          "name": "description",
          "type": "string"
        },
        {
          "internalType": "address",
          "name": "recipient",
          "type": "address"
        },
        {
          "internalType": "uint256",
          "name": "value",
          "type": "uint256"
        },
        {
          "internalType": "bool",
          "name": "isCompleted",
          "type": "bool"
        },
        {
          "internalType": "uint256",
          "name": "numApprovers",
          "type": "uint256"
        }
      ],
      "stateMutability": "view",
      "type": "function",
      "constant": true
    },
    {
      "inputs": [],
      "name": "title",
      "outputs": [
        {
          "internalType": "string",
          "name": "",
          "type": "string"
        }
      ],
      "stateMutability": "view",
      "type": "function",
      "constant": true
    },
    {
      "inputs": [],
      "name": "contribute",
      "outputs": [],
      "stateMutability": "payable",
      "type": "function",
      "payable": true
    },
    {
      "inputs": [],
      "name": "getBalance",
      "outputs": [
        {
          "internalType": "uint256",
          "name": "",
          "type": "uint256"
        }
      ],
      "stateMutability": "view",
      "type": "function",
      "constant": true
    },
    {
      "inputs": [],
      "name": "getRefund",
      "outputs": [],
      "stateMutability": "nonpayable",
      "type": "function"
    },
    {
      "inputs": [
        {
          "internalType": "string",
          "name": "_description",
          "type": "string"
        },
        {
          "internalType": "address",
          "name": "_recipient",
          "type": "address"
        },
        {
          "internalType": "uint256",
          "name": "_value",
          "type": "uint256"
        }
      ],
      "name": "createRequest",
      "outputs": [],
      "stateMutability": "nonpayable",
      "type": "function"
    },
    {
      "inputs": [
        {
          "internalType": "uint256",
          "name": "_requestIndex",
          "type": "uint256"
        }
      ],
      "name": "approveRequest",
      "outputs": [],
      "stateMutability": "nonpayable",
      "type": "function"
    },
    {
      "inputs": [
        {
          "internalType": "uint256",
          "name": "_requestIndex",
          "type": "uint256"
        }
      ],
      "name": "finalizeRequest",
      "outputs": [],
      "stateMutability": "nonpayable",
      "type": "function"
    }
  ],
  "bytecode": "0x608060405260006006553480156200001657600080fd5b50604051620021823803806200218283398181016040528101906200003c9190620003c9565b81600481905550856000806101000a81548173ffffffffffffffffffffffffffffffffffffffff021916908373ffffffffffffffffffffffffffffffffffffffff1602179055508042620000919190620004d2565b600581905550826003819055508460079080519060200190620000b6929190620000dc565b508360089080519060200190620000cf929190620000dc565b5050505050505062000594565b828054620000ea906200055e565b90600052602060002090601f0160209004810192826200010e57600085556200015a565b82601f106200012957805160ff19168380011785556200015a565b828001600101855582156200015a579182015b82811115620001595782518255916020019190600101906200013c565b5b5090506200016991906200016d565b5090565b5b80821115620001885760008160009055506001016200016e565b5090565b6000604051905090565b600080fd5b600080fd5b600073ffffffffffffffffffffffffffffffffffffffff82169050919050565b6000620001cd82620001a0565b9050919050565b620001df81620001c0565b8114620001eb57600080fd5b50565b600081519050620001ff81620001d4565b92915050565b600080fd5b600080fd5b6000601f19601f8301169050919050565b7f4e487b7100000000000000000000000000000000000000000000000000000000600052604160045260246000fd5b6200025a826200020f565b810181811067ffffffffffffffff821117156200027c576200027b62000220565b5b80604052505050565b6000620002916200018c565b90506200029f82826200024f565b919050565b600067ffffffffffffffff821115620002c257620002c162000220565b5b620002cd826200020f565b9050602081019050919050565b60005b83811015620002fa578082015181840152602081019050620002dd565b838111156200030a576000848401525b50505050565b6000620003276200032184620002a4565b62000285565b9050828152602081018484840111156200034657620003456200020a565b5b62000353848285620002da565b509392505050565b600082601f83011262000373576200037262000205565b5b81516200038584826020860162000310565b91505092915050565b6000819050919050565b620003a3816200038e565b8114620003af57600080fd5b50565b600081519050620003c38162000398565b92915050565b60008060008060008060c08789031215620003e957620003e862000196565b5b6000620003f989828a01620001ee565b965050602087015167ffffffffffffffff8111156200041d576200041c6200019b565b5b6200042b89828a016200035b565b955050604087015167ffffffffffffffff8111156200044f576200044e6200019b565b5b6200045d89828a016200035b565b94505060606200047089828a01620003b2565b93505060806200048389828a01620003b2565b92505060a06200049689828a01620003b2565b9150509295509295509295565b7f4e487b7100000000000000000000000000000000000000000000000000000000600052601160045260246000fd5b6000620004df826200038e565b9150620004ec836200038e565b9250827fffffffffffffffffffffffffffffffffffffffffffffffffffffffffffffffff03821115620005245762000523620004a3565b5b828201905092915050565b7f4e487b7100000000000000000000000000000000000000000000000000000000600052602260045260246000fd5b600060028204905060018216806200057757607f821691505b602082108114156200058e576200058d6200052f565b5b50919050565b611bde80620005a46000396000f3fe6080604052600436106100fe5760003560e01c806381d12c5811610095578063b2d5ae4411610064578063b2d5ae441461033d578063c59ee1dc14610354578063d7bb99ba1461037f578063d7d1bbdb14610389578063f851a440146103b2576100fe565b806381d12c58146102695780638f03850b146102aa578063937e09b1146102d5578063b2b5998214610300576100fe565b806329dcb0cf116100d157806329dcb0cf146101bd57806340193883146101e85780634a79d50c146102135780637284e4161461023e576100fe565b8063034410061461010357806312065fe01461012c5780631b16bb5c146101575780631f6d494214610180575b600080fd5b34801561010f57600080fd5b5061012a60048036038101906101259190611007565b6103dd565b005b34801561013857600080fd5b506101416105c6565b60405161014e9190611043565b60405180910390f35b34801561016357600080fd5b5061017e60048036038101906101799190611202565b6105ce565b005b34801561018c57600080fd5b506101a760048036038101906101a29190611271565b6107b0565b6040516101b49190611043565b60405180910390f35b3480156101c957600080fd5b506101d26107c8565b6040516101df9190611043565b60405180910390f35b3480156101f457600080fd5b506101fd6107ce565b60405161020a9190611043565b60405180910390f35b34801561021f57600080fd5b506102286107d4565b6040516102359190611326565b60405180910390f35b34801561024a57600080fd5b50610253610862565b6040516102609190611326565b60405180910390f35b34801561027557600080fd5b50610290600480360381019061028b9190611007565b6108f0565b6040516102a1959493929190611372565b60405180910390f35b3480156102b657600080fd5b506102bf6109eb565b6040516102cc9190611043565b60405180910390f35b3480156102e157600080fd5b506102ea6109f1565b6040516102f79190611043565b60405180910390f35b34801561030c57600080fd5b50610327600480360381019061032291906113cc565b6109f7565b6040516103349190611428565b60405180910390f35b34801561034957600080fd5b50610352610a3c565b005b34801561036057600080fd5b50610369610bad565b6040516103769190611043565b60405180910390f35b610387610bb3565b005b34801561039557600080fd5b506103b060048036038101906103ab9190611007565b610d0d565b005b3480156103be57600080fd5b506103c7610ef6565b6040516103d49190611443565b60405180910390f35b60008054906101000a900473ffffffffffffffffffffffffffffffffffffffff1673ffffffffffffffffffffffffffffffffffffffff163373ffffffffffffffffffffffffffffffffffffffff161461046b576040517f08c379a0000000000000000000000000000000000000000000000000000000008152600401610462906114d0565b60405180910390fd5b600060098281548110610481576104806114f0565b5b906000526020600020906005020190508060030160009054906101000a900460ff16156104e3576040517f08c379a00000000000000000000000000000000000000000000000000000000081526004016104da90611591565b60405180910390fd5b600280546104f1919061160f565b816004015411610536576040517f08c379a000000000000000000000000000000000000000000000000000000000815260040161052d906116b2565b60405180910390fd5b8060010160009054906101000a900473ffffffffffffffffffffffffffffffffffffffff1673ffffffffffffffffffffffffffffffffffffffff166108fc82600201549081150290604051600060405180830381858888f193505050501580156105a4573d6000803e3d6000fd5b5060018160030160006101000a81548160ff0219169083151502179055505050565b600047905090565b60008054906101000a900473ffffffffffffffffffffffffffffffffffffffff1673ffffffffffffffffffffffffffffffffffffffff163373ffffffffffffffffffffffffffffffffffffffff161461065c576040517f08c379a0000000000000000000000000000000000000000000000000000000008152600401610653906114d0565b60405180910390fd5b6000811161069f576040517f08c379a000000000000000000000000000000000000000000000000000000000815260040161069690611744565b60405180910390fd5b60006040518060a001604052808581526020018473ffffffffffffffffffffffffffffffffffffffff168152602001838152602001600015158152602001600081525090506009819080600181540180825580915050600190039060005260206000209060050201600090919091909150600082015181600001908051906020019061072c929190610f1a565b5060208201518160010160006101000a81548173ffffffffffffffffffffffffffffffffffffffff021916908373ffffffffffffffffffffffffffffffffffffffff1602179055506040820151816002015560608201518160030160006101000a81548160ff02191690831515021790555060808201518160040155505050505050565b60016020528060005260406000206000915090505481565b60055481565b60045481565b600780546107e190611793565b80601f016020809104026020016040519081016040528092919081815260200182805461080d90611793565b801561085a5780601f1061082f5761010080835404028352916020019161085a565b820191906000526020600020905b81548152906001019060200180831161083d57829003601f168201915b505050505081565b6008805461086f90611793565b80601f016020809104026020016040519081016040528092919081815260200182805461089b90611793565b80156108e85780601f106108bd576101008083540402835291602001916108e8565b820191906000526020600020905b8154815290600101906020018083116108cb57829003601f168201915b505050505081565b6009818154811061090057600080fd5b906000526020600020906005020160009150905080600001805461092390611793565b80601f016020809104026020016040519081016040528092919081815260200182805461094f90611793565b801561099c5780601f106109715761010080835404028352916020019161099c565b820191906000526020600020905b81548152906001019060200180831161097f57829003601f168201915b5050505050908060010160009054906101000a900473ffffffffffffffffffffffffffffffffffffffff16908060020154908060030160009054906101000a900460ff16908060040154905085565b60025481565b60035481565b600a602052816000526040600020818051602081018201805184825260208301602085012081835280955050505050506000915091509054906101000a900460ff1681565b600033905060055442118015610a555750600454600654105b8015610aa057506000600160008373ffffffffffffffffffffffffffffffffffffffff1673ffffffffffffffffffffffffffffffffffffffff16815260200190815260200160002054115b610adf576040517f08c379a0000000000000000000000000000000000000000000000000000000008152600401610ad690611811565b60405180910390fd5b8073ffffffffffffffffffffffffffffffffffffffff166108fc600160008473ffffffffffffffffffffffffffffffffffffffff1673ffffffffffffffffffffffffffffffffffffffff168152602001908152602001600020549081150290604051600060405180830381858888f19350505050158015610b64573d6000803e3d6000fd5b506000600160008373ffffffffffffffffffffffffffffffffffffffff1673ffffffffffffffffffffffffffffffffffffffff1681526020019081526020016000208190555050565b60065481565b6005544210610bf7576040517f08c379a0000000000000000000000000000000000000000000000000000000008152600401610bee9061187d565b60405180910390fd5b6003543410610c3b576040517f08c379a0000000000000000000000000000000000000000000000000000000008152600401610c329061190f565b60405180910390fd5b6000600160003373ffffffffffffffffffffffffffffffffffffffff1673ffffffffffffffffffffffffffffffffffffffff168152602001908152602001600020541415610c9c5760026000815480929190610c969061192f565b91905055505b34600160003373ffffffffffffffffffffffffffffffffffffffff1673ffffffffffffffffffffffffffffffffffffffff1681526020019081526020016000206000828254610ceb9190611978565b925050819055503460066000828254610d049190611978565b92505081905550565b6000600160003373ffffffffffffffffffffffffffffffffffffffff1673ffffffffffffffffffffffffffffffffffffffff1681526020019081526020016000205411610d8f576040517f08c379a0000000000000000000000000000000000000000000000000000000008152600401610d8690611a40565b60405180910390fd5b600060098281548110610da557610da46114f0565b5b90600052602060002090600502019050600a60003373ffffffffffffffffffffffffffffffffffffffff1673ffffffffffffffffffffffffffffffffffffffff16815260200190815260200160002081600001604051610e059190611aff565b908152602001604051809103902060009054906101000a900460ff1615610e61576040517f08c379a0000000000000000000000000000000000000000000000000000000008152600401610e5890611b88565b60405180910390fd5b6001600a60003373ffffffffffffffffffffffffffffffffffffffff1673ffffffffffffffffffffffffffffffffffffffff16815260200190815260200160002082600001604051610eb39190611aff565b908152602001604051809103902060006101000a81548160ff021916908315150217905550806004016000815480929190610eed9061192f565b91905055505050565b60008054906101000a900473ffffffffffffffffffffffffffffffffffffffff1681565b828054610f2690611793565b90600052602060002090601f016020900481019282610f485760008555610f8f565b82601f10610f6157805160ff1916838001178555610f8f565b82800160010185558215610f8f579182015b82811115610f8e578251825591602001919060010190610f73565b5b509050610f9c9190610fa0565b5090565b5b80821115610fb9576000816000905550600101610fa1565b5090565b6000604051905090565b600080fd5b600080fd5b6000819050919050565b610fe481610fd1565b8114610fef57600080fd5b50565b60008135905061100181610fdb565b92915050565b60006020828403121561101d5761101c610fc7565b5b600061102b84828501610ff2565b91505092915050565b61103d81610fd1565b82525050565b60006020820190506110586000830184611034565b92915050565b600080fd5b600080fd5b6000601f19601f8301169050919050565b7f4e487b7100000000000000000000000000000000000000000000000000000000600052604160045260246000fd5b6110b182611068565b810181811067ffffffffffffffff821117156110d0576110cf611079565b5b80604052505050565b60006110e3610fbd565b90506110ef82826110a8565b919050565b600067ffffffffffffffff82111561110f5761110e611079565b5b61111882611068565b9050602081019050919050565b82818337600083830152505050565b6000611147611142846110f4565b6110d9565b90508281526020810184848401111561116357611162611063565b5b61116e848285611125565b509392505050565b600082601f83011261118b5761118a61105e565b5b813561119b848260208601611134565b91505092915050565b600073ffffffffffffffffffffffffffffffffffffffff82169050919050565b60006111cf826111a4565b9050919050565b6111df816111c4565b81146111ea57600080fd5b50565b6000813590506111fc816111d6565b92915050565b60008060006060848603121561121b5761121a610fc7565b5b600084013567ffffffffffffffff81111561123957611238610fcc565b5b61124586828701611176565b9350506020611256868287016111ed565b925050604061126786828701610ff2565b9150509250925092565b60006020828403121561128757611286610fc7565b5b6000611295848285016111ed565b91505092915050565b600081519050919050565b600082825260208201905092915050565b60005b838110156112d85780820151818401526020810190506112bd565b838111156112e7576000848401525b50505050565b60006112f88261129e565b61130281856112a9565b93506113128185602086016112ba565b61131b81611068565b840191505092915050565b6000602082019050818103600083015261134081846112ed565b905092915050565b611351816111c4565b82525050565b60008115159050919050565b61136c81611357565b82525050565b600060a082019050818103600083015261138c81886112ed565b905061139b6020830187611348565b6113a86040830186611034565b6113b56060830185611363565b6113c26080830184611034565b9695505050505050565b600080604083850312156113e3576113e2610fc7565b5b60006113f1858286016111ed565b925050602083013567ffffffffffffffff81111561141257611411610fcc565b5b61141e85828601611176565b9150509250929050565b600060208201905061143d6000830184611363565b92915050565b60006020820190506114586000830184611348565b92915050565b7f4f6e6c792063616d706169676e2061646d696e2063616e206d616b652074686960008201527f7320726571756573740000000000000000000000000000000000000000000000602082015250565b60006114ba6029836112a9565b91506114c58261145e565b604082019050919050565b600060208201905081810360008301526114e9816114ad565b9050919050565b7f4e487b7100000000000000000000000000000000000000000000000000000000600052603260045260246000fd5b7f526571756573742068617320616c7265616479206265656e2066696e616c697a60008201527f656420616e6420617070726f7665640000000000000000000000000000000000602082015250565b600061157b602f836112a9565b91506115868261151f565b604082019050919050565b600060208201905081810360008301526115aa8161156e565b9050919050565b7f4e487b7100000000000000000000000000000000000000000000000000000000600052601260045260246000fd5b7f4e487b7100000000000000000000000000000000000000000000000000000000600052601160045260246000fd5b600061161a82610fd1565b915061162583610fd1565b925082611635576116346115b1565b5b828204905092915050565b7f4e6f7420656e6f75676820617070726f7665727320686176652061677265656460008201527f2075706f6e207468697320726571756573740000000000000000000000000000602082015250565b600061169c6032836112a9565b91506116a782611640565b604082019050919050565b600060208201905081810360008301526116cb8161168f565b9050919050565b7f45787065637465642076616c756520746f2062652061746c656173742031205760008201527f6569000000000000000000000000000000000000000000000000000000000000602082015250565b600061172e6022836112a9565b9150611739826116d2565b604082019050919050565b6000602082019050818103600083015261175d81611721565b9050919050565b7f4e487b7100000000000000000000000000000000000000000000000000000000600052602260045260246000fd5b600060028204905060018216806117ab57607f821691505b602082108114156117bf576117be611764565b5b50919050565b7f596f7520617265206e6f7420656c696769626c6520666f7220726566756e6400600082015250565b60006117fb601f836112a9565b9150611806826117c5565b602082019050919050565b6000602082019050818103600083015261182a816117ee565b9050919050565b7f43726f776466756e64696e672068617320656e6465642e000000000000000000600082015250565b60006118676017836112a9565b915061187282611831565b602082019050919050565b600060208201905081810360008301526118968161185a565b9050919050565b7f506c656173652073656e6420746865206d696e696d756d20636f6e747269627560008201527f74696f6e20616d6f756e74000000000000000000000000000000000000000000602082015250565b60006118f9602b836112a9565b91506119048261189d565b604082019050919050565b60006020820190508181036000830152611928816118ec565b9050919050565b600061193a82610fd1565b91507fffffffffffffffffffffffffffffffffffffffffffffffffffffffffffffffff82141561196d5761196c6115e0565b5b600182019050919050565b600061198382610fd1565b915061198e83610fd1565b9250827fffffffffffffffffffffffffffffffffffffffffffffffffffffffffffffffff038211156119c3576119c26115e0565b5b828201905092915050565b7f596f75206e65656420746f20636f6e7472696275746520666972737420696e2060008201527f6f7264657220746f206170726f76652072657175657374730000000000000000602082015250565b6000611a2a6038836112a9565b9150611a35826119ce565b604082019050919050565b60006020820190508181036000830152611a5981611a1d565b9050919050565b600081905092915050565b60008190508160005260206000209050919050565b60008154611a8d81611793565b611a978186611a60565b94506001821660008114611ab25760018114611ac357611af6565b60ff19831686528186019350611af6565b611acc85611a6b565b60005b83811015611aee57815481890152600182019150602081019050611acf565b838801955050505b50505092915050565b6000611b0b8284611a80565b915081905092915050565b7f596f75206861766520616c726561647920766f74656420666f7220746865207260008201527f6571756573740000000000000000000000000000000000000000000000000000602082015250565b6000611b726026836112a9565b9150611b7d82611b16565b604082019050919050565b60006020820190508181036000830152611ba181611b65565b905091905056fea2646970667358221220ae450276a56a1aa5abddb20f761ab9b740b6020e479107bd15684d6f86f1703064736f6c634300080a0033",
  "immutableReferences": {},
  "source": "// SPDX-License-Identifier: MIT\r\npragma solidity 0.8.10;\r\n\r\ncontract Campaign {\r\n    struct Request {\r\n        string description;\r\n        address recipient;\r\n        uint256 value;\r\n        bool isCompleted;\r\n        uint256 numApprovers;\r\n    }\r\n\r\n    address public admin;\r\n    mapping(address => uint256) public contributors;\r\n    uint256 public numContributors;\r\n    uint256 public minimumContribution;\r\n    uint256 public goal;\r\n    uint256 public deadline;\r\n    uint256 public raisedAmount = 0;\r\n    string public title;\r\n    string public description;\r\n\r\n    Request[] public requests;\r\n    mapping(address => mapping(string => bool)) public approvalsForRequest;\r\n\r\n    constructor(\r\n        address _admin,\r\n        string memory _title,\r\n        string memory _description,\r\n        uint256 _minimumContribution,\r\n        uint256 _goal,\r\n        uint256 _deadline\r\n    ) {\r\n        goal = _goal;\r\n        admin = _admin;\r\n        deadline = block.timestamp + _deadline;\r\n        minimumContribution = _minimumContribution;\r\n        title = _title;\r\n        description = _description;\r\n    }\r\n\r\n    modifier adminOnly() {\r\n        require(\r\n            msg.sender == admin,\r\n            \"Only campaign admin can make this request\"\r\n        );\r\n        _;\r\n    }\r\n\r\n    function contribute() public payable {\r\n        require(block.timestamp < deadline, \"Crowdfunding has ended.\");\r\n        require(\r\n            msg.value < minimumContribution,\r\n            \"Please send the minimum contribution amount\"\r\n        );\r\n        // If msg.sender is a new contributor, then increment the number of contributors\r\n        if (contributors[msg.sender] == 0) {\r\n            numContributors++;\r\n        }\r\n        contributors[msg.sender] += msg.value;\r\n        raisedAmount += msg.value;\r\n    }\r\n\r\n    function getBalance() public view returns (uint256) {\r\n        return address(this).balance;\r\n    }\r\n\r\n    function getRefund() public {\r\n        address recipient = msg.sender;\r\n        require(\r\n            block.timestamp > deadline &&\r\n                raisedAmount < goal &&\r\n                contributors[recipient] > 0,\r\n            \"You are not eligible for refund\"\r\n        );\r\n        payable(recipient).transfer(contributors[recipient]);\r\n        contributors[recipient] = 0;\r\n    }\r\n\r\n    function createRequest(\r\n        string memory _description,\r\n        address _recipient,\r\n        uint256 _value\r\n    ) public adminOnly {\r\n        require(_value > 0, \"Expected value to be atleast 1 Wei\");\r\n        Request memory newRequest = Request({\r\n            description: _description,\r\n            recipient: _recipient,\r\n            value: _value,\r\n            isCompleted: false,\r\n            numApprovers: 0\r\n        });\r\n        requests.push(newRequest);\r\n    }\r\n\r\n    function approveRequest(uint256 _requestIndex) public {\r\n        require(\r\n            contributors[msg.sender] > 0,\r\n            \"You need to contribute first in order to aprove requests\"\r\n        );\r\n        // Find the request\r\n        Request storage request = requests[_requestIndex];\r\n        // Check if the person has already voted or not\r\n        require(\r\n            !approvalsForRequest[msg.sender][request.description],\r\n            \"You have already voted for the request\"\r\n        );\r\n        // Add the person to approvalsForRequest\r\n        approvalsForRequest[msg.sender][request.description] = true;\r\n        request.numApprovers++;\r\n    }\r\n\r\n    function finalizeRequest(uint256 _requestIndex) public adminOnly {\r\n        // Find the request\r\n        Request storage request = requests[_requestIndex];\r\n        // Ensure that the request is not already finalized\r\n        require(\r\n            !request.isCompleted,\r\n            \"Request has already been finalized and approved\"\r\n        );\r\n        // Ensure that atleast half the contributers have approved\r\n        require(\r\n            request.numApprovers > (numContributors / 2),\r\n            \"Not enough approvers have agreed upon this request\"\r\n        );\r\n\r\n        payable(request.recipient).transfer(request.value);\r\n        request.isCompleted = true;\r\n    }\r\n}\r\n",
  "sourcePath": "E:\\Projects\\blockchain\\blockchain-kickstart\\contracts\\Campaign.sol",
  "compiler": {
    "name": "solc",
    "version": "0.8.10+commit.fc410830.Emscripten.clang"
  },
  "schemaVersion": "3.4.3",
  "updatedAt": "2021-11-28T19:49:36.405Z",
  "networkType": "ethereum",
  "devdoc": {
    "kind": "dev",
    "methods": {},
    "version": 1
  },
  "userdoc": {
    "kind": "user",
    "methods": {},
    "version": 1
  }
}