{
  "contractName": "Campaign",
  "abi": [
    {
      "inputs": [
        {
          "internalType": "address",
          "name": "_admin",
          "type": "address"
        },
        {
          "internalType": "string",
          "name": "_title",
          "type": "string"
        },
        {
          "internalType": "string",
          "name": "_description",
          "type": "string"
        },
        {
          "internalType": "uint256",
          "name": "_minimumContribution",
          "type": "uint256"
        },
        {
          "internalType": "uint256",
          "name": "_goal",
          "type": "uint256"
        },
        {
          "internalType": "uint256",
          "name": "_deadline",
          "type": "uint256"
        }
      ],
      "stateMutability": "nonpayable",
      "type": "constructor"
    },
    {
      "inputs": [],
      "name": "admin",
      "outputs": [
        {
          "internalType": "address",
          "name": "",
          "type": "address"
        }
      ],
      "stateMutability": "view",
      "type": "function",
      "constant": true
    },
    {
      "inputs": [
        {
          "internalType": "address",
          "name": "",
          "type": "address"
        },
        {
          "internalType": "string",
          "name": "",
          "type": "string"
        }
      ],
      "name": "approvalsForRequest",
      "outputs": [
        {
          "internalType": "bool",
          "name": "",
          "type": "bool"
        }
      ],
      "stateMutability": "view",
      "type": "function",
      "constant": true
    },
    {
      "inputs": [
        {
          "internalType": "address",
          "name": "",
          "type": "address"
        }
      ],
      "name": "contributors",
      "outputs": [
        {
          "internalType": "uint256",
          "name": "",
          "type": "uint256"
        }
      ],
      "stateMutability": "view",
      "type": "function",
      "constant": true
    },
    {
      "inputs": [],
      "name": "deadline",
      "outputs": [
        {
          "internalType": "uint256",
          "name": "",
          "type": "uint256"
        }
      ],
      "stateMutability": "view",
      "type": "function",
      "constant": true
    },
    {
      "inputs": [],
      "name": "description",
      "outputs": [
        {
          "internalType": "string",
          "name": "",
          "type": "string"
        }
      ],
      "stateMutability": "view",
      "type": "function",
      "constant": true
    },
    {
      "inputs": [],
      "name": "goal",
      "outputs": [
        {
          "internalType": "uint256",
          "name": "",
          "type": "uint256"
        }
      ],
      "stateMutability": "view",
      "type": "function",
      "constant": true
    },
    {
      "inputs": [],
      "name": "minimumContribution",
      "outputs": [
        {
          "internalType": "uint256",
          "name": "",
          "type": "uint256"
        }
      ],
      "stateMutability": "view",
      "type": "function",
      "constant": true
    },
    {
      "inputs": [],
      "name": "numContributors",
      "outputs": [
        {
          "internalType": "uint256",
          "name": "",
          "type": "uint256"
        }
      ],
      "stateMutability": "view",
      "type": "function",
      "constant": true
    },
    {
      "inputs": [],
      "name": "raisedAmount",
      "outputs": [
        {
          "internalType": "uint256",
          "name": "",
          "type": "uint256"
        }
      ],
      "stateMutability": "view",
      "type": "function",
      "constant": true
    },
    {
      "inputs": [
        {
          "internalType": "uint256",
          "name": "",
          "type": "uint256"
        }
      ],
      "name": "requests",
      "outputs": [
        {
          "internalType": "string",
          "name": "description",
          "type": "string"
        },
        {
          "internalType": "address",
          "name": "recipient",
          "type": "address"
        },
        {
          "internalType": "uint256",
          "name": "value",
          "type": "uint256"
        },
        {
          "internalType": "bool",
          "name": "isCompleted",
          "type": "bool"
        },
        {
          "internalType": "uint256",
          "name": "numApprovers",
          "type": "uint256"
        }
      ],
      "stateMutability": "view",
      "type": "function",
      "constant": true
    },
    {
      "inputs": [],
      "name": "title",
      "outputs": [
        {
          "internalType": "string",
          "name": "",
          "type": "string"
        }
      ],
      "stateMutability": "view",
      "type": "function",
      "constant": true
    },
    {
      "inputs": [],
      "name": "contribute",
      "outputs": [],
      "stateMutability": "payable",
      "type": "function",
      "payable": true
    },
    {
      "inputs": [],
      "name": "getBalance",
      "outputs": [
        {
          "internalType": "uint256",
          "name": "",
          "type": "uint256"
        }
      ],
      "stateMutability": "view",
      "type": "function",
      "constant": true
    },
    {
      "inputs": [],
      "name": "getRefund",
      "outputs": [],
      "stateMutability": "nonpayable",
      "type": "function"
    },
    {
      "inputs": [],
      "name": "getRequests",
      "outputs": [
        {
          "components": [
            {
              "internalType": "string",
              "name": "description",
              "type": "string"
            },
            {
              "internalType": "address",
              "name": "recipient",
              "type": "address"
            },
            {
              "internalType": "uint256",
              "name": "value",
              "type": "uint256"
            },
            {
              "internalType": "bool",
              "name": "isCompleted",
              "type": "bool"
            },
            {
              "internalType": "uint256",
              "name": "numApprovers",
              "type": "uint256"
            }
          ],
          "internalType": "struct Campaign.Request[]",
          "name": "",
          "type": "tuple[]"
        }
      ],
      "stateMutability": "view",
      "type": "function",
      "constant": true
    },
    {
      "inputs": [
        {
          "internalType": "string",
          "name": "_description",
          "type": "string"
        },
        {
          "internalType": "address",
          "name": "_recipient",
          "type": "address"
        },
        {
          "internalType": "uint256",
          "name": "_value",
          "type": "uint256"
        }
      ],
      "name": "createRequest",
      "outputs": [],
      "stateMutability": "nonpayable",
      "type": "function"
    },
    {
      "inputs": [
        {
          "internalType": "uint256",
          "name": "_requestIndex",
          "type": "uint256"
        }
      ],
      "name": "approveRequest",
      "outputs": [],
      "stateMutability": "nonpayable",
      "type": "function"
    },
    {
      "inputs": [
        {
          "internalType": "uint256",
          "name": "_requestIndex",
          "type": "uint256"
        }
      ],
      "name": "finalizeRequest",
      "outputs": [],
      "stateMutability": "nonpayable",
      "type": "function"
    }
  ],
  "bytecode": "0x608060405260006006553480156200001657600080fd5b50604051620024ff380380620024ff83398181016040528101906200003c9190620003c9565b81600481905550856000806101000a81548173ffffffffffffffffffffffffffffffffffffffff021916908373ffffffffffffffffffffffffffffffffffffffff1602179055508042620000919190620004d2565b600581905550826003819055508460079080519060200190620000b6929190620000dc565b508360089080519060200190620000cf929190620000dc565b5050505050505062000594565b828054620000ea906200055e565b90600052602060002090601f0160209004810192826200010e57600085556200015a565b82601f106200012957805160ff19168380011785556200015a565b828001600101855582156200015a579182015b82811115620001595782518255916020019190600101906200013c565b5b5090506200016991906200016d565b5090565b5b80821115620001885760008160009055506001016200016e565b5090565b6000604051905090565b600080fd5b600080fd5b600073ffffffffffffffffffffffffffffffffffffffff82169050919050565b6000620001cd82620001a0565b9050919050565b620001df81620001c0565b8114620001eb57600080fd5b50565b600081519050620001ff81620001d4565b92915050565b600080fd5b600080fd5b6000601f19601f8301169050919050565b7f4e487b7100000000000000000000000000000000000000000000000000000000600052604160045260246000fd5b6200025a826200020f565b810181811067ffffffffffffffff821117156200027c576200027b62000220565b5b80604052505050565b6000620002916200018c565b90506200029f82826200024f565b919050565b600067ffffffffffffffff821115620002c257620002c162000220565b5b620002cd826200020f565b9050602081019050919050565b60005b83811015620002fa578082015181840152602081019050620002dd565b838111156200030a576000848401525b50505050565b6000620003276200032184620002a4565b62000285565b9050828152602081018484840111156200034657620003456200020a565b5b62000353848285620002da565b509392505050565b600082601f83011262000373576200037262000205565b5b81516200038584826020860162000310565b91505092915050565b6000819050919050565b620003a3816200038e565b8114620003af57600080fd5b50565b600081519050620003c38162000398565b92915050565b60008060008060008060c08789031215620003e957620003e862000196565b5b6000620003f989828a01620001ee565b965050602087015167ffffffffffffffff8111156200041d576200041c6200019b565b5b6200042b89828a016200035b565b955050604087015167ffffffffffffffff8111156200044f576200044e6200019b565b5b6200045d89828a016200035b565b94505060606200047089828a01620003b2565b93505060806200048389828a01620003b2565b92505060a06200049689828a01620003b2565b9150509295509295509295565b7f4e487b7100000000000000000000000000000000000000000000000000000000600052601160045260246000fd5b6000620004df826200038e565b9150620004ec836200038e565b9250827fffffffffffffffffffffffffffffffffffffffffffffffffffffffffffffffff03821115620005245762000523620004a3565b5b828201905092915050565b7f4e487b7100000000000000000000000000000000000000000000000000000000600052602260045260246000fd5b600060028204905060018216806200057757607f821691505b602082108114156200058e576200058d6200052f565b5b50919050565b611f5b80620005a46000396000f3fe6080604052600436106101095760003560e01c80638813ce1211610095578063b2d5ae4411610064578063b2d5ae4414610373578063c59ee1dc1461038a578063d7bb99ba146103b5578063d7d1bbdb146103bf578063f851a440146103e857610109565b80638813ce12146102b55780638f03850b146102e0578063937e09b11461030b578063b2b599821461033657610109565b806329dcb0cf116100dc57806329dcb0cf146101c857806340193883146101f35780634a79d50c1461021e5780637284e4161461024957806381d12c581461027457610109565b8063034410061461010e57806312065fe0146101375780631b16bb5c146101625780631f6d49421461018b575b600080fd5b34801561011a57600080fd5b50610135600480360381019061013091906111b3565b610413565b005b34801561014357600080fd5b5061014c6105fc565b60405161015991906111ef565b60405180910390f35b34801561016e57600080fd5b50610189600480360381019061018491906113ae565b610604565b005b34801561019757600080fd5b506101b260048036038101906101ad919061141d565b6107e6565b6040516101bf91906111ef565b60405180910390f35b3480156101d457600080fd5b506101dd6107fe565b6040516101ea91906111ef565b60405180910390f35b3480156101ff57600080fd5b50610208610804565b60405161021591906111ef565b60405180910390f35b34801561022a57600080fd5b5061023361080a565b60405161024091906114d2565b60405180910390f35b34801561025557600080fd5b5061025e610898565b60405161026b91906114d2565b60405180910390f35b34801561028057600080fd5b5061029b600480360381019061029691906111b3565b610926565b6040516102ac95949392919061151e565b60405180910390f35b3480156102c157600080fd5b506102ca610a21565b6040516102d79190611727565b60405180910390f35b3480156102ec57600080fd5b506102f5610b97565b60405161030291906111ef565b60405180910390f35b34801561031757600080fd5b50610320610b9d565b60405161032d91906111ef565b60405180910390f35b34801561034257600080fd5b5061035d60048036038101906103589190611749565b610ba3565b60405161036a91906117a5565b60405180910390f35b34801561037f57600080fd5b50610388610be8565b005b34801561039657600080fd5b5061039f610d59565b6040516103ac91906111ef565b60405180910390f35b6103bd610d5f565b005b3480156103cb57600080fd5b506103e660048036038101906103e191906111b3565b610eb9565b005b3480156103f457600080fd5b506103fd6110a2565b60405161040a91906117c0565b60405180910390f35b60008054906101000a900473ffffffffffffffffffffffffffffffffffffffff1673ffffffffffffffffffffffffffffffffffffffff163373ffffffffffffffffffffffffffffffffffffffff16146104a1576040517f08c379a00000000000000000000000000000000000000000000000000000000081526004016104989061184d565b60405180910390fd5b6000600982815481106104b7576104b661186d565b5b906000526020600020906005020190508060030160009054906101000a900460ff1615610519576040517f08c379a00000000000000000000000000000000000000000000000000000000081526004016105109061190e565b60405180910390fd5b60028054610527919061198c565b81600401541161056c576040517f08c379a000000000000000000000000000000000000000000000000000000000815260040161056390611a2f565b60405180910390fd5b8060010160009054906101000a900473ffffffffffffffffffffffffffffffffffffffff1673ffffffffffffffffffffffffffffffffffffffff166108fc82600201549081150290604051600060405180830381858888f193505050501580156105da573d6000803e3d6000fd5b5060018160030160006101000a81548160ff0219169083151502179055505050565b600047905090565b60008054906101000a900473ffffffffffffffffffffffffffffffffffffffff1673ffffffffffffffffffffffffffffffffffffffff163373ffffffffffffffffffffffffffffffffffffffff1614610692576040517f08c379a00000000000000000000000000000000000000000000000000000000081526004016106899061184d565b60405180910390fd5b600081116106d5576040517f08c379a00000000000000000000000000000000000000000000000000000000081526004016106cc90611ac1565b60405180910390fd5b60006040518060a001604052808581526020018473ffffffffffffffffffffffffffffffffffffffff16815260200183815260200160001515815260200160008152509050600981908060018154018082558091505060019003906000526020600020906005020160009091909190915060008201518160000190805190602001906107629291906110c6565b5060208201518160010160006101000a81548173ffffffffffffffffffffffffffffffffffffffff021916908373ffffffffffffffffffffffffffffffffffffffff1602179055506040820151816002015560608201518160030160006101000a81548160ff02191690831515021790555060808201518160040155505050505050565b60016020528060005260406000206000915090505481565b60055481565b60045481565b6007805461081790611b10565b80601f016020809104026020016040519081016040528092919081815260200182805461084390611b10565b80156108905780601f1061086557610100808354040283529160200191610890565b820191906000526020600020905b81548152906001019060200180831161087357829003601f168201915b505050505081565b600880546108a590611b10565b80601f01602080910402602001604051908101604052809291908181526020018280546108d190611b10565b801561091e5780601f106108f35761010080835404028352916020019161091e565b820191906000526020600020905b81548152906001019060200180831161090157829003601f168201915b505050505081565b6009818154811061093657600080fd5b906000526020600020906005020160009150905080600001805461095990611b10565b80601f016020809104026020016040519081016040528092919081815260200182805461098590611b10565b80156109d25780601f106109a7576101008083540402835291602001916109d2565b820191906000526020600020905b8154815290600101906020018083116109b557829003601f168201915b5050505050908060010160009054906101000a900473ffffffffffffffffffffffffffffffffffffffff16908060020154908060030160009054906101000a900460ff16908060040154905085565b60606009805480602002602001604051908101604052809291908181526020016000905b82821015610b8e57838290600052602060002090600502016040518060a0016040529081600082018054610a7890611b10565b80601f0160208091040260200160405190810160405280929190818152602001828054610aa490611b10565b8015610af15780601f10610ac657610100808354040283529160200191610af1565b820191906000526020600020905b815481529060010190602001808311610ad457829003601f168201915b505050505081526020016001820160009054906101000a900473ffffffffffffffffffffffffffffffffffffffff1673ffffffffffffffffffffffffffffffffffffffff1673ffffffffffffffffffffffffffffffffffffffff168152602001600282015481526020016003820160009054906101000a900460ff1615151515815260200160048201548152505081526020019060010190610a45565b50505050905090565b60025481565b60035481565b600a602052816000526040600020818051602081018201805184825260208301602085012081835280955050505050506000915091509054906101000a900460ff1681565b600033905060055442118015610c015750600454600654105b8015610c4c57506000600160008373ffffffffffffffffffffffffffffffffffffffff1673ffffffffffffffffffffffffffffffffffffffff16815260200190815260200160002054115b610c8b576040517f08c379a0000000000000000000000000000000000000000000000000000000008152600401610c8290611b8e565b60405180910390fd5b8073ffffffffffffffffffffffffffffffffffffffff166108fc600160008473ffffffffffffffffffffffffffffffffffffffff1673ffffffffffffffffffffffffffffffffffffffff168152602001908152602001600020549081150290604051600060405180830381858888f19350505050158015610d10573d6000803e3d6000fd5b506000600160008373ffffffffffffffffffffffffffffffffffffffff1673ffffffffffffffffffffffffffffffffffffffff1681526020019081526020016000208190555050565b60065481565b6005544210610da3576040517f08c379a0000000000000000000000000000000000000000000000000000000008152600401610d9a90611bfa565b60405180910390fd5b6003543410610de7576040517f08c379a0000000000000000000000000000000000000000000000000000000008152600401610dde90611c8c565b60405180910390fd5b6000600160003373ffffffffffffffffffffffffffffffffffffffff1673ffffffffffffffffffffffffffffffffffffffff168152602001908152602001600020541415610e485760026000815480929190610e4290611cac565b91905055505b34600160003373ffffffffffffffffffffffffffffffffffffffff1673ffffffffffffffffffffffffffffffffffffffff1681526020019081526020016000206000828254610e979190611cf5565b925050819055503460066000828254610eb09190611cf5565b92505081905550565b6000600160003373ffffffffffffffffffffffffffffffffffffffff1673ffffffffffffffffffffffffffffffffffffffff1681526020019081526020016000205411610f3b576040517f08c379a0000000000000000000000000000000000000000000000000000000008152600401610f3290611dbd565b60405180910390fd5b600060098281548110610f5157610f5061186d565b5b90600052602060002090600502019050600a60003373ffffffffffffffffffffffffffffffffffffffff1673ffffffffffffffffffffffffffffffffffffffff16815260200190815260200160002081600001604051610fb19190611e7c565b908152602001604051809103902060009054906101000a900460ff161561100d576040517f08c379a000000000000000000000000000000000000000000000000000000000815260040161100490611f05565b60405180910390fd5b6001600a60003373ffffffffffffffffffffffffffffffffffffffff1673ffffffffffffffffffffffffffffffffffffffff1681526020019081526020016000208260000160405161105f9190611e7c565b908152602001604051809103902060006101000a81548160ff02191690831515021790555080600401600081548092919061109990611cac565b91905055505050565b60008054906101000a900473ffffffffffffffffffffffffffffffffffffffff1681565b8280546110d290611b10565b90600052602060002090601f0160209004810192826110f4576000855561113b565b82601f1061110d57805160ff191683800117855561113b565b8280016001018555821561113b579182015b8281111561113a57825182559160200191906001019061111f565b5b509050611148919061114c565b5090565b5b8082111561116557600081600090555060010161114d565b5090565b6000604051905090565b600080fd5b600080fd5b6000819050919050565b6111908161117d565b811461119b57600080fd5b50565b6000813590506111ad81611187565b92915050565b6000602082840312156111c9576111c8611173565b5b60006111d78482850161119e565b91505092915050565b6111e98161117d565b82525050565b600060208201905061120460008301846111e0565b92915050565b600080fd5b600080fd5b6000601f19601f8301169050919050565b7f4e487b7100000000000000000000000000000000000000000000000000000000600052604160045260246000fd5b61125d82611214565b810181811067ffffffffffffffff8211171561127c5761127b611225565b5b80604052505050565b600061128f611169565b905061129b8282611254565b919050565b600067ffffffffffffffff8211156112bb576112ba611225565b5b6112c482611214565b9050602081019050919050565b82818337600083830152505050565b60006112f36112ee846112a0565b611285565b90508281526020810184848401111561130f5761130e61120f565b5b61131a8482856112d1565b509392505050565b600082601f8301126113375761133661120a565b5b81356113478482602086016112e0565b91505092915050565b600073ffffffffffffffffffffffffffffffffffffffff82169050919050565b600061137b82611350565b9050919050565b61138b81611370565b811461139657600080fd5b50565b6000813590506113a881611382565b92915050565b6000806000606084860312156113c7576113c6611173565b5b600084013567ffffffffffffffff8111156113e5576113e4611178565b5b6113f186828701611322565b935050602061140286828701611399565b92505060406114138682870161119e565b9150509250925092565b60006020828403121561143357611432611173565b5b600061144184828501611399565b91505092915050565b600081519050919050565b600082825260208201905092915050565b60005b83811015611484578082015181840152602081019050611469565b83811115611493576000848401525b50505050565b60006114a48261144a565b6114ae8185611455565b93506114be818560208601611466565b6114c781611214565b840191505092915050565b600060208201905081810360008301526114ec8184611499565b905092915050565b6114fd81611370565b82525050565b60008115159050919050565b61151881611503565b82525050565b600060a08201905081810360008301526115388188611499565b905061154760208301876114f4565b61155460408301866111e0565b611561606083018561150f565b61156e60808301846111e0565b9695505050505050565b600081519050919050565b600082825260208201905092915050565b6000819050602082019050919050565b600082825260208201905092915050565b60006115c08261144a565b6115ca81856115a4565b93506115da818560208601611466565b6115e381611214565b840191505092915050565b6115f781611370565b82525050565b6116068161117d565b82525050565b61161581611503565b82525050565b600060a083016000830151848203600086015261163882826115b5565b915050602083015161164d60208601826115ee565b50604083015161166060408601826115fd565b506060830151611673606086018261160c565b50608083015161168660808601826115fd565b508091505092915050565b600061169d838361161b565b905092915050565b6000602082019050919050565b60006116bd82611578565b6116c78185611583565b9350836020820285016116d985611594565b8060005b8581101561171557848403895281516116f68582611691565b9450611701836116a5565b925060208a019950506001810190506116dd565b50829750879550505050505092915050565b6000602082019050818103600083015261174181846116b2565b905092915050565b600080604083850312156117605761175f611173565b5b600061176e85828601611399565b925050602083013567ffffffffffffffff81111561178f5761178e611178565b5b61179b85828601611322565b9150509250929050565b60006020820190506117ba600083018461150f565b92915050565b60006020820190506117d560008301846114f4565b92915050565b7f4f6e6c792063616d706169676e2061646d696e2063616e206d616b652074686960008201527f7320726571756573740000000000000000000000000000000000000000000000602082015250565b6000611837602983611455565b9150611842826117db565b604082019050919050565b600060208201905081810360008301526118668161182a565b9050919050565b7f4e487b7100000000000000000000000000000000000000000000000000000000600052603260045260246000fd5b7f526571756573742068617320616c7265616479206265656e2066696e616c697a60008201527f656420616e6420617070726f7665640000000000000000000000000000000000602082015250565b60006118f8602f83611455565b91506119038261189c565b604082019050919050565b60006020820190508181036000830152611927816118eb565b9050919050565b7f4e487b7100000000000000000000000000000000000000000000000000000000600052601260045260246000fd5b7f4e487b7100000000000000000000000000000000000000000000000000000000600052601160045260246000fd5b60006119978261117d565b91506119a28361117d565b9250826119b2576119b161192e565b5b828204905092915050565b7f4e6f7420656e6f75676820617070726f7665727320686176652061677265656460008201527f2075706f6e207468697320726571756573740000000000000000000000000000602082015250565b6000611a19603283611455565b9150611a24826119bd565b604082019050919050565b60006020820190508181036000830152611a4881611a0c565b9050919050565b7f45787065637465642076616c756520746f2062652061746c656173742031205760008201527f6569000000000000000000000000000000000000000000000000000000000000602082015250565b6000611aab602283611455565b9150611ab682611a4f565b604082019050919050565b60006020820190508181036000830152611ada81611a9e565b9050919050565b7f4e487b7100000000000000000000000000000000000000000000000000000000600052602260045260246000fd5b60006002820490506001821680611b2857607f821691505b60208210811415611b3c57611b3b611ae1565b5b50919050565b7f596f7520617265206e6f7420656c696769626c6520666f7220726566756e6400600082015250565b6000611b78601f83611455565b9150611b8382611b42565b602082019050919050565b60006020820190508181036000830152611ba781611b6b565b9050919050565b7f43726f776466756e64696e672068617320656e6465642e000000000000000000600082015250565b6000611be4601783611455565b9150611bef82611bae565b602082019050919050565b60006020820190508181036000830152611c1381611bd7565b9050919050565b7f506c656173652073656e6420746865206d696e696d756d20636f6e747269627560008201527f74696f6e20616d6f756e74000000000000000000000000000000000000000000602082015250565b6000611c76602b83611455565b9150611c8182611c1a565b604082019050919050565b60006020820190508181036000830152611ca581611c69565b9050919050565b6000611cb78261117d565b91507fffffffffffffffffffffffffffffffffffffffffffffffffffffffffffffffff821415611cea57611ce961195d565b5b600182019050919050565b6000611d008261117d565b9150611d0b8361117d565b9250827fffffffffffffffffffffffffffffffffffffffffffffffffffffffffffffffff03821115611d4057611d3f61195d565b5b828201905092915050565b7f596f75206e65656420746f20636f6e7472696275746520666972737420696e2060008201527f6f7264657220746f206170726f76652072657175657374730000000000000000602082015250565b6000611da7603883611455565b9150611db282611d4b565b604082019050919050565b60006020820190508181036000830152611dd681611d9a565b9050919050565b600081905092915050565b60008190508160005260206000209050919050565b60008154611e0a81611b10565b611e148186611ddd565b94506001821660008114611e2f5760018114611e4057611e73565b60ff19831686528186019350611e73565b611e4985611de8565b60005b83811015611e6b57815481890152600182019150602081019050611e4c565b838801955050505b50505092915050565b6000611e888284611dfd565b915081905092915050565b7f596f75206861766520616c726561647920766f74656420666f7220746865207260008201527f6571756573740000000000000000000000000000000000000000000000000000602082015250565b6000611eef602683611455565b9150611efa82611e93565b604082019050919050565b60006020820190508181036000830152611f1e81611ee2565b905091905056fea2646970667358221220724035234280eb78a869d319b7a264bb20dc81528cb28112fe1c9617c09fed2064736f6c634300080a0033",
  "immutableReferences": {},
  "source": "// SPDX-License-Identifier: MIT\r\npragma solidity 0.8.10;\r\n\r\ncontract Campaign {\r\n    struct Request {\r\n        string description;\r\n        address recipient;\r\n        uint256 value;\r\n        bool isCompleted;\r\n        uint256 numApprovers;\r\n    }\r\n\r\n    address public admin;\r\n    mapping(address => uint256) public contributors;\r\n    uint256 public numContributors;\r\n    uint256 public minimumContribution;\r\n    uint256 public goal;\r\n    uint256 public deadline;\r\n    uint256 public raisedAmount = 0;\r\n    string public title;\r\n    string public description;\r\n\r\n    Request[] public requests;\r\n    mapping(address => mapping(string => bool)) public approvalsForRequest;\r\n\r\n    constructor(\r\n        address _admin,\r\n        string memory _title,\r\n        string memory _description,\r\n        uint256 _minimumContribution,\r\n        uint256 _goal,\r\n        uint256 _deadline\r\n    ) {\r\n        goal = _goal;\r\n        admin = _admin;\r\n        deadline = block.timestamp + _deadline;\r\n        minimumContribution = _minimumContribution;\r\n        title = _title;\r\n        description = _description;\r\n    }\r\n\r\n    modifier adminOnly() {\r\n        require(\r\n            msg.sender == admin,\r\n            \"Only campaign admin can make this request\"\r\n        );\r\n        _;\r\n    }\r\n\r\n    function contribute() public payable {\r\n        require(block.timestamp < deadline, \"Crowdfunding has ended.\");\r\n        require(\r\n            msg.value < minimumContribution,\r\n            \"Please send the minimum contribution amount\"\r\n        );\r\n        // If msg.sender is a new contributor, then increment the number of contributors\r\n        if (contributors[msg.sender] == 0) {\r\n            numContributors++;\r\n        }\r\n        contributors[msg.sender] += msg.value;\r\n        raisedAmount += msg.value;\r\n    }\r\n\r\n    function getBalance() public view returns (uint256) {\r\n        return address(this).balance;\r\n    }\r\n\r\n    function getRefund() public {\r\n        address recipient = msg.sender;\r\n        require(\r\n            block.timestamp > deadline &&\r\n                raisedAmount < goal &&\r\n                contributors[recipient] > 0,\r\n            \"You are not eligible for refund\"\r\n        );\r\n        payable(recipient).transfer(contributors[recipient]);\r\n        contributors[recipient] = 0;\r\n    }\r\n\r\n    function getRequests() public view returns(Request[] memory) {\r\n        return requests;\r\n    }\r\n\r\n    function createRequest(\r\n        string memory _description,\r\n        address _recipient,\r\n        uint256 _value\r\n    ) public adminOnly {\r\n        require(_value > 0, \"Expected value to be atleast 1 Wei\");\r\n        Request memory newRequest = Request({\r\n            description: _description,\r\n            recipient: _recipient,\r\n            value: _value,\r\n            isCompleted: false,\r\n            numApprovers: 0\r\n        });\r\n        requests.push(newRequest);\r\n    }\r\n\r\n    function approveRequest(uint256 _requestIndex) public {\r\n        require(\r\n            contributors[msg.sender] > 0,\r\n            \"You need to contribute first in order to aprove requests\"\r\n        );\r\n        // Find the request\r\n        Request storage request = requests[_requestIndex];\r\n        // Check if the person has already voted or not\r\n        require(\r\n            !approvalsForRequest[msg.sender][request.description],\r\n            \"You have already voted for the request\"\r\n        );\r\n        // Add the person to approvalsForRequest\r\n        approvalsForRequest[msg.sender][request.description] = true;\r\n        request.numApprovers++;\r\n    }\r\n\r\n    function finalizeRequest(uint256 _requestIndex) public adminOnly {\r\n        // Find the request\r\n        Request storage request = requests[_requestIndex];\r\n        // Ensure that the request is not already finalized\r\n        require(\r\n            !request.isCompleted,\r\n            \"Request has already been finalized and approved\"\r\n        );\r\n        // Ensure that atleast half the contributers have approved\r\n        require(\r\n            request.numApprovers > (numContributors / 2),\r\n            \"Not enough approvers have agreed upon this request\"\r\n        );\r\n\r\n        payable(request.recipient).transfer(request.value);\r\n        request.isCompleted = true;\r\n    }\r\n}\r\n",
  "sourcePath": "E:\\Projects\\blockchain\\blockchain-kickstart\\contracts\\Campaign.sol",
  "compiler": {
    "name": "solc",
    "version": "0.8.10+commit.fc410830.Emscripten.clang"
  },
  "schemaVersion": "3.4.3",
  "updatedAt": "2021-11-30T06:43:32.731Z",
  "networkType": "ethereum",
  "devdoc": {
    "kind": "dev",
    "methods": {},
    "version": 1
  },
  "userdoc": {
    "kind": "user",
    "methods": {},
    "version": 1
  }
}